{
  "_format": "hh3-artifact-1",
  "contractName": "C",
  "sourceName": "contracts/C.sol",
  "abi": [
    {
      "inputs": [],
      "name": "fname",
      "outputs": [
        {
          "internalType": "string",
          "name": "",
          "type": "string"
        }
      ],
      "stateMutability": "view",
      "type": "function"
    }
  ],
  "bytecode": "0x60c06040526004608090815263105b9a5b60e21b60a0525f9061002290826100cc565b5034801561002e575f5ffd5b50610186565b634e487b7160e01b5f52604160045260245ffd5b600181811c9082168061005c57607f821691505b60208210810361007a57634e487b7160e01b5f52602260045260245ffd5b50919050565b601f8211156100c757805f5260205f20601f840160051c810160208510156100a55750805b601f840160051c820191505b818110156100c4575f81556001016100b1565b50505b505050565b81516001600160401b038111156100e5576100e5610034565b6100f9816100f38454610048565b84610080565b6020601f82116001811461012b575f83156101145750848201515b5f19600385901b1c1916600184901b1784556100c4565b5f84815260208120601f198516915b8281101561015a578785015182556020948501946001909201910161013a565b508482101561017757868401515f19600387901b60f8161c191681555b50505050600190811b01905550565b610179806101935f395ff3fe608060405234801561000f575f5ffd5b5060043610610029575f3560e01c8063e319990c1461002d575b5f5ffd5b61003561004b565b60405161004291906100d6565b60405180910390f35b5f80546100579061010b565b80601f01602080910402602001604051908101604052809291908181526020018280546100839061010b565b80156100ce5780601f106100a5576101008083540402835291602001916100ce565b820191905f5260205f20905b8154815290600101906020018083116100b157829003601f168201915b505050505081565b602081525f82518060208401528060208501604085015e5f604082850101526040601f19601f83011684010191505092915050565b600181811c9082168061011f57607f821691505b60208210810361013d57634e487b7160e01b5f52602260045260245ffd5b5091905056fea26469706673582212208999bdd265950a4ae65c3d8be3ef30c284b2b821700ea440cd09cafc1fe4a0da64736f6c634300081c0033",
  "linkReferences": {},
  "deployedLinkReferences": {},
  "immutableReferences": {},
  "inputSourceName": "project/contracts/C.sol",
  "buildInfoId": "solc-0_8_28-0a6f9265317b648de12bc46651ac669890377d2a"
}